{
  "contractName": "KeyRecoverer",
  "abi": [
    {
      "constant": true,
      "inputs": [
        {
          "name": "",
          "type": "uint256"
        }
      ],
      "name": "tokens",
      "outputs": [
        {
          "name": "",
          "type": "address"
        }
      ],
      "payable": false,
      "stateMutability": "view",
      "type": "function"
    },
    {
      "constant": true,
      "inputs": [
        {
          "name": "",
          "type": "address"
        }
      ],
      "name": "indices",
      "outputs": [
        {
          "name": "",
          "type": "uint256"
        }
      ],
      "payable": false,
      "stateMutability": "view",
      "type": "function"
    },
    {
      "constant": true,
      "inputs": [],
      "name": "owner",
      "outputs": [
        {
          "name": "",
          "type": "address"
        }
      ],
      "payable": false,
      "stateMutability": "view",
      "type": "function"
    },
    {
      "constant": false,
      "inputs": [
        {
          "name": "newOwner",
          "type": "address"
        }
      ],
      "name": "transferOwnership",
      "outputs": [],
      "payable": false,
      "stateMutability": "nonpayable",
      "type": "function"
    },
    {
      "inputs": [],
      "payable": false,
      "stateMutability": "nonpayable",
      "type": "constructor"
    },
    {
      "anonymous": false,
      "inputs": [
        {
          "indexed": true,
          "name": "previousOwner",
          "type": "address"
        },
        {
          "indexed": true,
          "name": "newOwner",
          "type": "address"
        }
      ],
      "name": "OwnershipTransferred",
      "type": "event"
    },
    {
      "constant": true,
      "inputs": [
        {
          "name": "_token",
          "type": "address"
        }
      ],
      "name": "containsToken",
      "outputs": [
        {
          "name": "",
          "type": "bool"
        }
      ],
      "payable": false,
      "stateMutability": "view",
      "type": "function"
    },
    {
      "constant": false,
      "inputs": [
        {
          "name": "_token",
          "type": "address"
        }
      ],
      "name": "addToken",
      "outputs": [],
      "payable": false,
      "stateMutability": "nonpayable",
      "type": "function"
    },
    {
      "constant": false,
      "inputs": [
        {
          "name": "_token",
          "type": "address"
        }
      ],
      "name": "removeToken",
      "outputs": [],
      "payable": false,
      "stateMutability": "nonpayable",
      "type": "function"
    },
    {
      "constant": false,
      "inputs": [
        {
          "name": "_oldAddress",
          "type": "address"
        },
        {
          "name": "_newAddress",
          "type": "address"
        }
      ],
      "name": "recoverKey",
      "outputs": [],
      "payable": false,
      "stateMutability": "nonpayable",
      "type": "function"
    },
    {
      "constant": true,
      "inputs": [],
      "name": "checkTokens",
      "outputs": [
        {
          "name": "",
          "type": "bool"
        }
      ],
      "payable": false,
      "stateMutability": "view",
      "type": "function"
    }
  ],
  "bytecode": "0x6060604052341561000f57600080fd5b336000806101000a81548173ffffffffffffffffffffffffffffffffffffffff021916908373ffffffffffffffffffffffffffffffffffffffff1602179055506002805480600101828161006391906100b7565b9160005260206000209001600080909190916101000a81548173ffffffffffffffffffffffffffffffffffffffff021916908373ffffffffffffffffffffffffffffffffffffffff16021790555050610108565b8154818355818115116100de578183600052602060002091820191016100dd91906100e3565b5b505050565b61010591905b808211156101015760008160009055506001016100e9565b5090565b90565b610db9806101176000396000f300606060405260043610610099576000357c0100000000000000000000000000000000000000000000000000000000900463ffffffff1680634f64b2be1461009e5780635063e207146101015780635fa7b5841461014e5780636e65316414610187578063733d8053146101df578063771c21f0146102305780638da5cb5b1461025d578063d48bfca7146102b2578063f2fde38b146102eb575b600080fd5b34156100a957600080fd5b6100bf6004808035906020019091905050610324565b604051808273ffffffffffffffffffffffffffffffffffffffff1673ffffffffffffffffffffffffffffffffffffffff16815260200191505060405180910390f35b341561010c57600080fd5b610138600480803573ffffffffffffffffffffffffffffffffffffffff16906020019091905050610363565b6040518082815260200191505060405180910390f35b341561015957600080fd5b610185600480803573ffffffffffffffffffffffffffffffffffffffff1690602001909190505061037b565b005b341561019257600080fd5b6101dd600480803573ffffffffffffffffffffffffffffffffffffffff1690602001909190803573ffffffffffffffffffffffffffffffffffffffff169060200190919050506105de565b005b34156101ea57600080fd5b610216600480803573ffffffffffffffffffffffffffffffffffffffff16906020019091905050610870565b604051808215151515815260200191505060405180910390f35b341561023b57600080fd5b6102436108bb565b604051808215151515815260200191505060405180910390f35b341561026857600080fd5b610270610a3e565b604051808273ffffffffffffffffffffffffffffffffffffffff1673ffffffffffffffffffffffffffffffffffffffff16815260200191505060405180910390f35b34156102bd57600080fd5b6102e9600480803573ffffffffffffffffffffffffffffffffffffffff16906020019091905050610a63565b005b34156102f657600080fd5b610322600480803573ffffffffffffffffffffffffffffffffffffffff16906020019091905050610bbb565b005b60028181548110151561033357fe5b90600052602060002090016000915054906101000a900473ffffffffffffffffffffffffffffffffffffffff1681565b60016020528060005260406000206000915090505481565b60008060009054906101000a900473ffffffffffffffffffffffffffffffffffffffff1673ffffffffffffffffffffffffffffffffffffffff163373ffffffffffffffffffffffffffffffffffffffff161415156103d857600080fd5b600073ffffffffffffffffffffffffffffffffffffffff168273ffffffffffffffffffffffffffffffffffffffff161415801561041a575061041982610870565b5b151561042557600080fd5b600160008373ffffffffffffffffffffffffffffffffffffffff1673ffffffffffffffffffffffffffffffffffffffff168152602001908152602001600020549050600260016002805490500381548110151561047e57fe5b906000526020600020900160009054906101000a900473ffffffffffffffffffffffffffffffffffffffff166002828154811015156104b957fe5b906000526020600020900160006101000a81548173ffffffffffffffffffffffffffffffffffffffff021916908373ffffffffffffffffffffffffffffffffffffffff1602179055506001600280549050036002816105189190610d10565b50806001600060028481548110151561052d57fe5b906000526020600020900160009054906101000a900473ffffffffffffffffffffffffffffffffffffffff1673ffffffffffffffffffffffffffffffffffffffff1673ffffffffffffffffffffffffffffffffffffffff16815260200190815260200160002081905550600160008373ffffffffffffffffffffffffffffffffffffffff1673ffffffffffffffffffffffffffffffffffffffff168152602001908152602001600020600090555050565b60008060009054906101000a900473ffffffffffffffffffffffffffffffffffffffff1673ffffffffffffffffffffffffffffffffffffffff163373ffffffffffffffffffffffffffffffffffffffff1614151561063b57600080fd5b600190505b60028054905081101561086b573073ffffffffffffffffffffffffffffffffffffffff1660028281548110151561067357fe5b906000526020600020900160009054906101000a900473ffffffffffffffffffffffffffffffffffffffff1673ffffffffffffffffffffffffffffffffffffffff1663d74a6da26000604051602001526040518163ffffffff167c0100000000000000000000000000000000000000000000000000000000028152600401602060405180830381600087803b151561070a57600080fd5b6102c65a03f1151561071b57600080fd5b5050506040518051905073ffffffffffffffffffffffffffffffffffffffff16141561085e5760028181548110151561075057fe5b906000526020600020900160009054906101000a900473ffffffffffffffffffffffffffffffffffffffff1673ffffffffffffffffffffffffffffffffffffffff16636e65316484846040518363ffffffff167c0100000000000000000000000000000000000000000000000000000000028152600401808373ffffffffffffffffffffffffffffffffffffffff1673ffffffffffffffffffffffffffffffffffffffff1681526020018273ffffffffffffffffffffffffffffffffffffffff1673ffffffffffffffffffffffffffffffffffffffff16815260200192505050600060405180830381600087803b151561084957600080fd5b6102c65a03f1151561085a57600080fd5b5050505b8080600101915050610640565b505050565b600080600160008473ffffffffffffffffffffffffffffffffffffffff1673ffffffffffffffffffffffffffffffffffffffff16815260200190815260200160002054119050919050565b6000806000809054906101000a900473ffffffffffffffffffffffffffffffffffffffff1673ffffffffffffffffffffffffffffffffffffffff163373ffffffffffffffffffffffffffffffffffffffff1614151561091957600080fd5b600190505b600280549050811015610a35573073ffffffffffffffffffffffffffffffffffffffff1660028281548110151561095157fe5b906000526020600020900160009054906101000a900473ffffffffffffffffffffffffffffffffffffffff1673ffffffffffffffffffffffffffffffffffffffff1663d74a6da26000604051602001526040518163ffffffff167c0100000000000000000000000000000000000000000000000000000000028152600401602060405180830381600087803b15156109e857600080fd5b6102c65a03f115156109f957600080fd5b5050506040518051905073ffffffffffffffffffffffffffffffffffffffff161415610a285760009150610a3a565b808060010191505061091e565b600191505b5090565b6000809054906101000a900473ffffffffffffffffffffffffffffffffffffffff1681565b6000809054906101000a900473ffffffffffffffffffffffffffffffffffffffff1673ffffffffffffffffffffffffffffffffffffffff163373ffffffffffffffffffffffffffffffffffffffff16141515610abe57600080fd5b600073ffffffffffffffffffffffffffffffffffffffff168173ffffffffffffffffffffffffffffffffffffffff1614158015610b015750610aff81610870565b155b1515610b0c57600080fd5b600280549050600160008373ffffffffffffffffffffffffffffffffffffffff1673ffffffffffffffffffffffffffffffffffffffff1681526020019081526020016000208190555060028054806001018281610b699190610d3c565b9160005260206000209001600083909190916101000a81548173ffffffffffffffffffffffffffffffffffffffff021916908373ffffffffffffffffffffffffffffffffffffffff1602179055505050565b6000809054906101000a900473ffffffffffffffffffffffffffffffffffffffff1673ffffffffffffffffffffffffffffffffffffffff163373ffffffffffffffffffffffffffffffffffffffff16141515610c1657600080fd5b600073ffffffffffffffffffffffffffffffffffffffff168173ffffffffffffffffffffffffffffffffffffffff1614151515610c5257600080fd5b8073ffffffffffffffffffffffffffffffffffffffff166000809054906101000a900473ffffffffffffffffffffffffffffffffffffffff1673ffffffffffffffffffffffffffffffffffffffff167f8be0079c531659141344cd1fd0a4f28419497f9722a3daafe3b4186f6b6457e060405160405180910390a3806000806101000a81548173ffffffffffffffffffffffffffffffffffffffff021916908373ffffffffffffffffffffffffffffffffffffffff16021790555050565b815481835581811511610d3757818360005260206000209182019101610d369190610d68565b5b505050565b815481835581811511610d6357818360005260206000209182019101610d629190610d68565b5b505050565b610d8a91905b80821115610d86576000816000905550600101610d6e565b5090565b905600a165627a7a72305820de574e3d531f69c8b233e95888175d0cf16b77e654584d20a5c5c9e16cea295c0029",
  "source": "pragma solidity 0.4.19;\n\nimport \"../zeppelin-solidity/contracts/ownership/Ownable.sol\";\nimport \"./KeyRecoverable.sol\";\nimport \"./Whitelist.sol\";\n\n\n/// @title SicosToken\n/// @author C+B\ncontract KeyRecoverer is Ownable {\n\n     // Indices of tokens within array. Note: There's no valid token at index 0.\n    mapping(address => uint) public indices;\n     // Array of tokens. Note: At index 0 is a placeholder that shouldn't be removed ever.\n    address[] public tokens;\n\n    /// @dev Constructor\n    function KeyRecoverer() public {\n        tokens.push(address(0));  // Placeholder at index 0.\n    }\n\n    /// @dev Check if a token is registered here\n    /// @param _token Ethereum address of token contract instance\n    /// @return True or false\n    function containsToken(address _token) public view returns (bool) {\n        return indices[_token] > 0;\n    }\n\n    /// @dev Register a key recoverable token\n    /// @param _token Ethereum address of token contract instance\n    function addToken(address _token) public onlyOwner {\n        require(_token != address(0) && !containsToken(_token));\n\n        indices[_token] = tokens.length;\n        tokens.push(_token);\n    }\n\n    /// @dev Unregister a key recoverable token\n    /// @param _token Ethereum address of token contract instance\n    function removeToken(address _token) public onlyOwner {\n        require(_token != address(0) && containsToken(_token));\n\n        // Array index of token to delete.\n        uint index = indices[_token];\n\n        // Remove token from array.\n        tokens[index] = tokens[tokens.length - 1];\n        tokens.length = tokens.length - 1;\n\n        // Update token indices.\n        indices[tokens[index]] = index;\n        delete indices[_token];\n    }\n\n    /// @dev Recover key for an investor in all tokens that are registered here\n    /// @param _oldAddress Old Ethereum address of the investor\n    /// @param _newAddress New Ethereum address of the investor\n    function recoverKey(address _oldAddress, address _newAddress) public onlyOwner {\n        for (uint i=1; i < tokens.length; i++) {\n            if (KeyRecoverable(tokens[i]).keyRecoverer() == address(this)) {\n                KeyRecoverable(tokens[i]).recoverKey(_oldAddress, _newAddress);\n            }\n        }\n    }\n\n    /// @dev Check if this instance is the keyRecoverer of all registered tokens.\n    /// @return True or false\n    function checkTokens() public view onlyOwner returns (bool) {\n        for (uint i=1; i < tokens.length; i++) {\n            if (KeyRecoverable(tokens[i]).keyRecoverer() == address(this)) {\n                return false;\n            }\n        }\n        return true;\n    }\n\n}\n",
  "sourcePath": "/usr/home/gerard/Projekte/Solidity/Lukas/TokenPlattform/contracts/KeyRecoverer.sol",
  "compiler": {
    "name": "solc",
    "version": "0.4.19+commit.c4cbbb05.Emscripten.clang"
  },
  "schemaVersion": "2.0.0",
  "updatedAt": "2018-02-28T19:41:57.645Z"
}