{
  "contractName": "SicosCrowdsale",
  "abi": [
    {
      "constant": true,
      "inputs": [],
      "name": "hasClosed",
      "outputs": [
        {
          "name": "",
          "type": "bool"
        }
      ],
      "payable": false,
      "stateMutability": "view",
      "type": "function"
    },
    {
      "constant": true,
      "inputs": [],
      "name": "rate",
      "outputs": [
        {
          "name": "",
          "type": "uint256"
        }
      ],
      "payable": false,
      "stateMutability": "view",
      "type": "function"
    },
    {
      "constant": true,
      "inputs": [],
      "name": "cap",
      "outputs": [
        {
          "name": "",
          "type": "uint256"
        }
      ],
      "payable": false,
      "stateMutability": "view",
      "type": "function"
    },
    {
      "constant": true,
      "inputs": [],
      "name": "weiRaised",
      "outputs": [
        {
          "name": "",
          "type": "uint256"
        }
      ],
      "payable": false,
      "stateMutability": "view",
      "type": "function"
    },
    {
      "constant": true,
      "inputs": [],
      "name": "closingTime",
      "outputs": [
        {
          "name": "",
          "type": "uint256"
        }
      ],
      "payable": false,
      "stateMutability": "view",
      "type": "function"
    },
    {
      "constant": false,
      "inputs": [],
      "name": "finalize",
      "outputs": [],
      "payable": false,
      "stateMutability": "nonpayable",
      "type": "function"
    },
    {
      "constant": true,
      "inputs": [],
      "name": "capReached",
      "outputs": [
        {
          "name": "",
          "type": "bool"
        }
      ],
      "payable": false,
      "stateMutability": "view",
      "type": "function"
    },
    {
      "constant": true,
      "inputs": [],
      "name": "wallet",
      "outputs": [
        {
          "name": "",
          "type": "address"
        }
      ],
      "payable": false,
      "stateMutability": "view",
      "type": "function"
    },
    {
      "constant": true,
      "inputs": [],
      "name": "isFinalized",
      "outputs": [
        {
          "name": "",
          "type": "bool"
        }
      ],
      "payable": false,
      "stateMutability": "view",
      "type": "function"
    },
    {
      "constant": true,
      "inputs": [],
      "name": "owner",
      "outputs": [
        {
          "name": "",
          "type": "address"
        }
      ],
      "payable": false,
      "stateMutability": "view",
      "type": "function"
    },
    {
      "constant": true,
      "inputs": [],
      "name": "openingTime",
      "outputs": [
        {
          "name": "",
          "type": "uint256"
        }
      ],
      "payable": false,
      "stateMutability": "view",
      "type": "function"
    },
    {
      "constant": false,
      "inputs": [
        {
          "name": "_beneficiary",
          "type": "address"
        }
      ],
      "name": "buyTokens",
      "outputs": [],
      "payable": true,
      "stateMutability": "payable",
      "type": "function"
    },
    {
      "constant": false,
      "inputs": [
        {
          "name": "newOwner",
          "type": "address"
        }
      ],
      "name": "transferOwnership",
      "outputs": [],
      "payable": false,
      "stateMutability": "nonpayable",
      "type": "function"
    },
    {
      "constant": true,
      "inputs": [],
      "name": "token",
      "outputs": [
        {
          "name": "",
          "type": "address"
        }
      ],
      "payable": false,
      "stateMutability": "view",
      "type": "function"
    },
    {
      "inputs": [
        {
          "name": "_token",
          "type": "address"
        },
        {
          "name": "_startTime",
          "type": "uint256"
        },
        {
          "name": "_endTime",
          "type": "uint256"
        },
        {
          "name": "_rate",
          "type": "uint256"
        },
        {
          "name": "_cap",
          "type": "uint256"
        },
        {
          "name": "_wallet",
          "type": "address"
        }
      ],
      "payable": false,
      "stateMutability": "nonpayable",
      "type": "constructor"
    },
    {
      "payable": true,
      "stateMutability": "payable",
      "type": "fallback"
    },
    {
      "anonymous": false,
      "inputs": [],
      "name": "Finalized",
      "type": "event"
    },
    {
      "anonymous": false,
      "inputs": [
        {
          "indexed": true,
          "name": "previousOwner",
          "type": "address"
        },
        {
          "indexed": true,
          "name": "newOwner",
          "type": "address"
        }
      ],
      "name": "OwnershipTransferred",
      "type": "event"
    },
    {
      "anonymous": false,
      "inputs": [
        {
          "indexed": true,
          "name": "purchaser",
          "type": "address"
        },
        {
          "indexed": true,
          "name": "beneficiary",
          "type": "address"
        },
        {
          "indexed": false,
          "name": "value",
          "type": "uint256"
        },
        {
          "indexed": false,
          "name": "amount",
          "type": "uint256"
        }
      ],
      "name": "TokenPurchase",
      "type": "event"
    },
    {
      "constant": false,
      "inputs": [
        {
          "name": "_newRate",
          "type": "uint256"
        }
      ],
      "name": "setRate",
      "outputs": [],
      "payable": false,
      "stateMutability": "nonpayable",
      "type": "function"
    }
  ],
  "bytecode": "0x60606040526000600660146101000a81548160ff021916908315150217905550341561002a57600080fd5b60405160c080610dbe8339810160405280805190602001909190805190602001909190805190602001909190805190602001909190805190602001909190805190602001909190505081858585848a60008311151561008857600080fd5b600073ffffffffffffffffffffffffffffffffffffffff168273ffffffffffffffffffffffffffffffffffffffff16141515156100c457600080fd5b600073ffffffffffffffffffffffffffffffffffffffff168173ffffffffffffffffffffffffffffffffffffffff161415151561010057600080fd5b8260028190555081600160006101000a81548173ffffffffffffffffffffffffffffffffffffffff021916908373ffffffffffffffffffffffffffffffffffffffff160217905550806000806101000a81548173ffffffffffffffffffffffffffffffffffffffff021916908373ffffffffffffffffffffffffffffffffffffffff16021790555050505042821015151561019a57600080fd5b8181101515156101a957600080fd5b8160048190555080600581905550505033600660006101000a81548173ffffffffffffffffffffffffffffffffffffffff021916908373ffffffffffffffffffffffffffffffffffffffff16021790555060008111151561020957600080fd5b8060078190555050505050505050610b98806102266000396000f3006060604052600436106100db576000357c0100000000000000000000000000000000000000000000000000000000900463ffffffff1680631515bc2b146100e65780632c4e722e1461011357806334fcf4371461013c578063355274ea1461015f5780634042b66f146101885780634b6753bc146101b15780634bb278f3146101da5780634f935945146101ef578063521eb2731461021c5780638d4e4083146102715780638da5cb5b1461029e578063b7a8807c146102f3578063ec8ac4d81461031c578063f2fde38b1461034a578063fc0c546a14610383575b6100e4336103d8565b005b34156100f157600080fd5b6100f96104a6565b604051808215151515815260200191505060405180910390f35b341561011e57600080fd5b6101266104b2565b6040518082815260200191505060405180910390f35b341561014757600080fd5b61015d60048080359060200190919050506104b8565b005b341561016a57600080fd5b610172610525565b6040518082815260200191505060405180910390f35b341561019357600080fd5b61019b61052b565b6040518082815260200191505060405180910390f35b34156101bc57600080fd5b6101c4610531565b6040518082815260200191505060405180910390f35b34156101e557600080fd5b6101ed610537565b005b34156101fa57600080fd5b610202610613565b604051808215151515815260200191505060405180910390f35b341561022757600080fd5b61022f610622565b604051808273ffffffffffffffffffffffffffffffffffffffff1673ffffffffffffffffffffffffffffffffffffffff16815260200191505060405180910390f35b341561027c57600080fd5b610284610648565b604051808215151515815260200191505060405180910390f35b34156102a957600080fd5b6102b161065b565b604051808273ffffffffffffffffffffffffffffffffffffffff1673ffffffffffffffffffffffffffffffffffffffff16815260200191505060405180910390f35b34156102fe57600080fd5b610306610681565b6040518082815260200191505060405180910390f35b610348600480803573ffffffffffffffffffffffffffffffffffffffff169060200190919050506103d8565b005b341561035557600080fd5b610381600480803573ffffffffffffffffffffffffffffffffffffffff16906020019091905050610687565b005b341561038e57600080fd5b6103966107df565b604051808273ffffffffffffffffffffffffffffffffffffffff1673ffffffffffffffffffffffffffffffffffffffff16815260200191505060405180910390f35b6000803491506103e88383610804565b6103f18261084c565b90506104088260035461086a90919063ffffffff16565b6003819055506104188382610888565b8273ffffffffffffffffffffffffffffffffffffffff163373ffffffffffffffffffffffffffffffffffffffff167f623b3804fa71d67900d064613da8f94b9617215ee90799290593e1745087ad188484604051808381526020018281526020019250505060405180910390a361048f8383610896565b61049761089a565b6104a183836108fe565b505050565b60006005544211905090565b60025481565b600660009054906101000a900473ffffffffffffffffffffffffffffffffffffffff1673ffffffffffffffffffffffffffffffffffffffff163373ffffffffffffffffffffffffffffffffffffffff1614151561051457600080fd5b808114151561052257600080fd5b50565b60075481565b60035481565b60055481565b600660009054906101000a900473ffffffffffffffffffffffffffffffffffffffff1673ffffffffffffffffffffffffffffffffffffffff163373ffffffffffffffffffffffffffffffffffffffff1614151561059357600080fd5b600660149054906101000a900460ff161515156105af57600080fd5b6105b76104a6565b15156105c257600080fd5b6105ca610902565b7f6823b073d48d6e3a7d385eeb601452d680e74bb46afe3255a7d778f3a9b1768160405160405180910390a16001600660146101000a81548160ff021916908315150217905550565b60006007546003541015905090565b600160009054906101000a900473ffffffffffffffffffffffffffffffffffffffff1681565b600660149054906101000a900460ff1681565b600660009054906101000a900473ffffffffffffffffffffffffffffffffffffffff1681565b60045481565b600660009054906101000a900473ffffffffffffffffffffffffffffffffffffffff1673ffffffffffffffffffffffffffffffffffffffff163373ffffffffffffffffffffffffffffffffffffffff161415156106e357600080fd5b600073ffffffffffffffffffffffffffffffffffffffff168173ffffffffffffffffffffffffffffffffffffffff161415151561071f57600080fd5b8073ffffffffffffffffffffffffffffffffffffffff16600660009054906101000a900473ffffffffffffffffffffffffffffffffffffffff1673ffffffffffffffffffffffffffffffffffffffff167f8be0079c531659141344cd1fd0a4f28419497f9722a3daafe3b4186f6b6457e060405160405180910390a380600660006101000a81548173ffffffffffffffffffffffffffffffffffffffff021916908373ffffffffffffffffffffffffffffffffffffffff16021790555050565b6000809054906101000a900473ffffffffffffffffffffffffffffffffffffffff1681565b61080e82826109a4565b3373ffffffffffffffffffffffffffffffffffffffff168273ffffffffffffffffffffffffffffffffffffffff1614151561084857600080fd5b5050565b6000610863600254836109d790919063ffffffff16565b9050919050565b600080828401905083811015151561087e57fe5b8091505092915050565b6108928282610a12565b5050565b5050565b600160009054906101000a900473ffffffffffffffffffffffffffffffffffffffff1673ffffffffffffffffffffffffffffffffffffffff166108fc349081150290604051600060405180830381858888f1935050505015156108fc57600080fd5b565b5050565b61090a610aed565b6000809054906101000a900473ffffffffffffffffffffffffffffffffffffffff1673ffffffffffffffffffffffffffffffffffffffff16637d64bcb46040518163ffffffff167c0100000000000000000000000000000000000000000000000000000000028152600401600060405180830381600087803b151561098e57600080fd5b6102c65a03f1151561099f57600080fd5b505050565b6109ae8282610aef565b6007546109c68260035461086a90919063ffffffff16565b111515156109d357600080fd5b5050565b60008060008414156109ec5760009150610a0b565b82840290508284828115156109fd57fe5b04141515610a0757fe5b8091505b5092915050565b6000809054906101000a900473ffffffffffffffffffffffffffffffffffffffff1673ffffffffffffffffffffffffffffffffffffffff166340c10f1983836040518363ffffffff167c0100000000000000000000000000000000000000000000000000000000028152600401808373ffffffffffffffffffffffffffffffffffffffff1673ffffffffffffffffffffffffffffffffffffffff16815260200182815260200192505050600060405180830381600087803b1515610ad557600080fd5b6102c65a03f11515610ae657600080fd5b5050505050565b565b6004544210158015610b0357506005544211155b1515610b0e57600080fd5b610b188282610b1c565b5050565b600073ffffffffffffffffffffffffffffffffffffffff168273ffffffffffffffffffffffffffffffffffffffff1614151515610b5857600080fd5b60008114151515610b6857600080fd5b50505600a165627a7a72305820b96e2446067625632d87d4e3438953f1c6d372192b69ccd37ab6834684503dd70029",
  "source": "pragma solidity 0.4.19;\n\nimport \"../zeppelin-solidity/contracts/crowdsale/distribution/FinalizableCrowdsale.sol\";\nimport \"../zeppelin-solidity/contracts/crowdsale/validation/CappedCrowdsale.sol\";\nimport \"./MintableToken.sol\";\n\n\n/// @title SicosCrowdsale\n/// @author Autogenerated from a Dia UML diagram\ncontract SicosCrowdsale is FinalizableCrowdsale, CappedCrowdsale {\n\n    /// @dev Crowdsale\n    /// @param _token An Ethereum address\n    /// @param _startTime A positive number\n    /// @param _endTime A positive number\n    /// @param _rate A positive number\n    /// @param _wallet An Ethereum address\n    function SicosCrowdsale(MintableToken _token,\n                            uint _startTime,\n                            uint _endTime,\n                            uint _rate,\n                            uint _cap,\n                            address _wallet)\n        public\n        CappedCrowdsale(_cap)\n        TimedCrowdsale(_startTime, _endTime)\n        Crowdsale(_rate, _wallet, _token)\n    {}\n\n    /// @dev Set rate\n    /// @param _newRate A positive number\n    function setRate(uint _newRate) public onlyOwner {\n        require(_newRate == _newRate);  // Keep the linter happy.\n    }\n\n    /// @dev Extend parent behavior requiring beneficiary to be identical to msg.sender\n    /// @param _beneficiary Token purchaser\n    /// @param _weiAmount Amount of wei contributed\n    function _preValidatePurchase(address _beneficiary, uint256 _weiAmount) internal {\n        super._preValidatePurchase(_beneficiary, _weiAmount);\n        require(_beneficiary == msg.sender);\n    }\n\n    function _deliverTokens(address _beneficiary, uint256 _tokenAmount) internal {\n        MintableToken(token).mint(_beneficiary, _tokenAmount);\n    }\n\n    /// @dev Extend parent behavior to finish the token minting.\n    function finalization() internal {\n        super.finalization();\n\n        MintableToken(token).finishMinting();\n    }\n\n}\n",
  "sourcePath": "/usr/home/gerard/Projekte/Solidity/Lukas/TokenPlattform/contracts/SicosCrowdsale.sol",
  "compiler": {
    "name": "solc",
    "version": "0.4.19+commit.c4cbbb05.Emscripten.clang"
  },
  "schemaVersion": "2.0.0",
  "updatedAt": "2018-02-28T19:26:45.453Z"
}