{
  "contractName": "Whitelist",
  "abi": [
    {
      "constant": true,
      "inputs": [
        {
          "name": "",
          "type": "address"
        }
      ],
      "name": "isWhitelisted",
      "outputs": [
        {
          "name": "",
          "type": "bool"
        }
      ],
      "payable": false,
      "stateMutability": "view",
      "type": "function"
    },
    {
      "constant": true,
      "inputs": [
        {
          "name": "",
          "type": "address"
        }
      ],
      "name": "admins",
      "outputs": [
        {
          "name": "",
          "type": "bool"
        }
      ],
      "payable": false,
      "stateMutability": "view",
      "type": "function"
    },
    {
      "constant": true,
      "inputs": [],
      "name": "owner",
      "outputs": [
        {
          "name": "",
          "type": "address"
        }
      ],
      "payable": false,
      "stateMutability": "view",
      "type": "function"
    },
    {
      "constant": false,
      "inputs": [
        {
          "name": "newOwner",
          "type": "address"
        }
      ],
      "name": "transferOwnership",
      "outputs": [],
      "payable": false,
      "stateMutability": "nonpayable",
      "type": "function"
    },
    {
      "anonymous": false,
      "inputs": [
        {
          "indexed": false,
          "name": "admin",
          "type": "address"
        }
      ],
      "name": "AdminAdded",
      "type": "event"
    },
    {
      "anonymous": false,
      "inputs": [
        {
          "indexed": false,
          "name": "admin",
          "type": "address"
        }
      ],
      "name": "AdminRemoved",
      "type": "event"
    },
    {
      "anonymous": false,
      "inputs": [
        {
          "indexed": false,
          "name": "admin",
          "type": "address"
        },
        {
          "indexed": false,
          "name": "investor",
          "type": "address"
        }
      ],
      "name": "InvestorAdded",
      "type": "event"
    },
    {
      "anonymous": false,
      "inputs": [
        {
          "indexed": false,
          "name": "admin",
          "type": "address"
        },
        {
          "indexed": false,
          "name": "investor",
          "type": "address"
        }
      ],
      "name": "InvestorRemoved",
      "type": "event"
    },
    {
      "anonymous": false,
      "inputs": [
        {
          "indexed": true,
          "name": "previousOwner",
          "type": "address"
        },
        {
          "indexed": true,
          "name": "newOwner",
          "type": "address"
        }
      ],
      "name": "OwnershipTransferred",
      "type": "event"
    },
    {
      "constant": false,
      "inputs": [
        {
          "name": "_admin",
          "type": "address"
        }
      ],
      "name": "addAdmin",
      "outputs": [],
      "payable": false,
      "stateMutability": "nonpayable",
      "type": "function"
    },
    {
      "constant": false,
      "inputs": [
        {
          "name": "_admin",
          "type": "address"
        }
      ],
      "name": "removeAdmin",
      "outputs": [],
      "payable": false,
      "stateMutability": "nonpayable",
      "type": "function"
    },
    {
      "constant": false,
      "inputs": [
        {
          "name": "_investors",
          "type": "address[]"
        }
      ],
      "name": "addToWhitelist",
      "outputs": [],
      "payable": false,
      "stateMutability": "nonpayable",
      "type": "function"
    },
    {
      "constant": false,
      "inputs": [
        {
          "name": "_investors",
          "type": "address[]"
        }
      ],
      "name": "removeFromWhitelist",
      "outputs": [],
      "payable": false,
      "stateMutability": "nonpayable",
      "type": "function"
    }
  ],
  "bytecode": "0x6060604052336000806101000a81548173ffffffffffffffffffffffffffffffffffffffff021916908373ffffffffffffffffffffffffffffffffffffffff160217905550610a2c806100536000396000f30060606040526004361061008e576000357c0100000000000000000000000000000000000000000000000000000000900463ffffffff1680631785f53c146100935780633af32abf146100cc578063429b62e51461011d578063548db1741461016e57806370480275146101c85780637f649783146102015780638da5cb5b1461025b578063f2fde38b146102b0575b600080fd5b341561009e57600080fd5b6100ca600480803573ffffffffffffffffffffffffffffffffffffffff169060200190919050506102e9565b005b34156100d757600080fd5b610103600480803573ffffffffffffffffffffffffffffffffffffffff16906020019091905050610402565b604051808215151515815260200191505060405180910390f35b341561012857600080fd5b610154600480803573ffffffffffffffffffffffffffffffffffffffff16906020019091905050610422565b604051808215151515815260200191505060405180910390f35b341561017957600080fd5b6101c6600480803590602001908201803590602001908080602002602001604051908101604052809392919081815260200183836020028082843782019150505050505091905050610442565b005b34156101d357600080fd5b6101ff600480803573ffffffffffffffffffffffffffffffffffffffff169060200190919050506105d8565b005b341561020c57600080fd5b6102596004808035906020019082018035906020019080806020026020016040519081016040528093929190818152602001838360200280828437820191505050505050919050506106f0565b005b341561026657600080fd5b61026e610886565b604051808273ffffffffffffffffffffffffffffffffffffffff1673ffffffffffffffffffffffffffffffffffffffff16815260200191505060405180910390f35b34156102bb57600080fd5b6102e7600480803573ffffffffffffffffffffffffffffffffffffffff169060200190919050506108ab565b005b6000809054906101000a900473ffffffffffffffffffffffffffffffffffffffff1673ffffffffffffffffffffffffffffffffffffffff163373ffffffffffffffffffffffffffffffffffffffff1614151561034457600080fd5b6000600160008373ffffffffffffffffffffffffffffffffffffffff1673ffffffffffffffffffffffffffffffffffffffff16815260200190815260200160002060006101000a81548160ff0219169083151502179055507fa3b62bc36326052d97ea62d63c3d60308ed4c3ea8ac079dd8499f1e9c4f80c0f81604051808273ffffffffffffffffffffffffffffffffffffffff1673ffffffffffffffffffffffffffffffffffffffff16815260200191505060405180910390a150565b60026020528060005260406000206000915054906101000a900460ff1681565b60016020528060005260406000206000915054906101000a900460ff1681565b6000600160003373ffffffffffffffffffffffffffffffffffffffff1673ffffffffffffffffffffffffffffffffffffffff16815260200190815260200160002060009054906101000a900460ff16151561049c57600080fd5b600090505b81518110156105d45760006002600084848151811015156104be57fe5b9060200190602002015173ffffffffffffffffffffffffffffffffffffffff1673ffffffffffffffffffffffffffffffffffffffff16815260200190815260200160002060006101000a81548160ff0219169083151502179055507fd8755221287ca1f6b28807977a086f5534d9e02ea27ebad003d7cb1a95659a4633838381518110151561054957fe5b90602001906020020151604051808373ffffffffffffffffffffffffffffffffffffffff1673ffffffffffffffffffffffffffffffffffffffff1681526020018273ffffffffffffffffffffffffffffffffffffffff1673ffffffffffffffffffffffffffffffffffffffff1681526020019250505060405180910390a180806001019150506104a1565b5050565b6000809054906101000a900473ffffffffffffffffffffffffffffffffffffffff1673ffffffffffffffffffffffffffffffffffffffff163373ffffffffffffffffffffffffffffffffffffffff1614151561063357600080fd5b60018060008373ffffffffffffffffffffffffffffffffffffffff1673ffffffffffffffffffffffffffffffffffffffff16815260200190815260200160002060006101000a81548160ff0219169083151502179055507f44d6d25963f097ad14f29f06854a01f575648a1ef82f30e562ccd3889717e33981604051808273ffffffffffffffffffffffffffffffffffffffff1673ffffffffffffffffffffffffffffffffffffffff16815260200191505060405180910390a150565b6000600160003373ffffffffffffffffffffffffffffffffffffffff1673ffffffffffffffffffffffffffffffffffffffff16815260200190815260200160002060009054906101000a900460ff16151561074a57600080fd5b600090505b815181101561088257600160026000848481518110151561076c57fe5b9060200190602002015173ffffffffffffffffffffffffffffffffffffffff1673ffffffffffffffffffffffffffffffffffffffff16815260200190815260200160002060006101000a81548160ff0219169083151502179055507fe99183cc0b1657b54afa611991294ec1e4c458d7c36910518e2a5b76b2b6e73f3383838151811015156107f757fe5b90602001906020020151604051808373ffffffffffffffffffffffffffffffffffffffff1673ffffffffffffffffffffffffffffffffffffffff1681526020018273ffffffffffffffffffffffffffffffffffffffff1673ffffffffffffffffffffffffffffffffffffffff1681526020019250505060405180910390a1808060010191505061074f565b5050565b6000809054906101000a900473ffffffffffffffffffffffffffffffffffffffff1681565b6000809054906101000a900473ffffffffffffffffffffffffffffffffffffffff1673ffffffffffffffffffffffffffffffffffffffff163373ffffffffffffffffffffffffffffffffffffffff1614151561090657600080fd5b600073ffffffffffffffffffffffffffffffffffffffff168173ffffffffffffffffffffffffffffffffffffffff161415151561094257600080fd5b8073ffffffffffffffffffffffffffffffffffffffff166000809054906101000a900473ffffffffffffffffffffffffffffffffffffffff1673ffffffffffffffffffffffffffffffffffffffff167f8be0079c531659141344cd1fd0a4f28419497f9722a3daafe3b4186f6b6457e060405160405180910390a3806000806101000a81548173ffffffffffffffffffffffffffffffffffffffff021916908373ffffffffffffffffffffffffffffffffffffffff160217905550505600a165627a7a72305820cb3a62ffdf124a53772970449767ccf630bb4c6451fbfd8767f701cff448c0fb0029",
  "source": "pragma solidity 0.4.19;\n\nimport \"../zeppelin-solidity/contracts/ownership/Ownable.sol\";\n\n\n/// @title Whitelist\n/// @author Autogenerated from a Dia UML diagram\ncontract Whitelist is Ownable {\n\n    mapping(address => bool) public admins;\n    mapping(address => bool) public isWhitelisted;\n\n    /// @dev Log entry on admin added\n    /// @param admin An Ethereum address\n    event AdminAdded(address admin);\n\n    /// @dev Log entry on admin removed\n    /// @param admin An Ethereum address\n    event AdminRemoved(address admin);\n\n    /// @dev Log entry on investor added\n    /// @param admin An Ethereum address\n    /// @param investor An Ethereum address\n    event InvestorAdded(address admin, address investor);\n\n    /// @dev Log entry on investor removed\n    /// @param admin An Ethereum address\n    /// @param investor An Ethereum address\n    event InvestorRemoved(address admin, address investor);\n\n    /// @dev Only admin\n    modifier onlyAdmin() {\n        require(admins[msg.sender]);\n        _;\n    }\n\n    /// @dev Add admin\n    /// @param _admin An Ethereum address\n    function addAdmin(address _admin) public onlyOwner {\n        admins[_admin] = true;\n        AdminAdded(_admin);\n    }\n\n    /// @dev Remove admin\n    /// @param _admin An Ethereum address\n    function removeAdmin(address _admin) public onlyOwner {\n        admins[_admin] = false;\n        AdminRemoved(_admin);\n    }\n\n    /// @dev Add to whitelist\n    /// @param _investors A list where each entry is an Ethereum address\n    function addToWhitelist(address[] _investors) public onlyAdmin {\n        for (uint256 i = 0; i < _investors.length; i++) {\n            isWhitelisted[_investors[i]] = true;\n            InvestorAdded(msg.sender, _investors[i]);\n        }\n    }\n\n    /// @dev Remove from whitelist\n    /// @param _investors A list where each entry is an Ethereum address\n    function removeFromWhitelist(address[] _investors) public onlyAdmin {\n        for (uint256 i = 0; i < _investors.length; i++) {\n            isWhitelisted[_investors[i]] = false;\n            InvestorRemoved(msg.sender, _investors[i]);\n        }\n    }\n\n}\n",
  "sourcePath": "/usr/home/gerard/Projekte/Solidity/Sicos/TokenPlatform/contracts/Whitelist.sol",
  "compiler": {
    "name": "solc",
    "version": "0.4.19+commit.c4cbbb05.Emscripten.clang"
  },
  "schemaVersion": "2.0.0",
  "updatedAt": "2018-03-20T14:46:32.731Z"
}